{
  "contractName": "DAO",
  "abi": [
    {
      "inputs": [
        {
          "internalType": "uint256",
          "name": "contributionTime",
          "type": "uint256"
        },
        {
          "internalType": "uint256",
          "name": "_voteTime",
          "type": "uint256"
        },
        {
          "internalType": "uint256",
          "name": "_quorum",
          "type": "uint256"
        }
      ],
      "stateMutability": "nonpayable",
      "type": "constructor"
    },
    {
      "inputs": [],
      "name": "admin",
      "outputs": [
        {
          "internalType": "address",
          "name": "",
          "type": "address"
        }
      ],
      "stateMutability": "view",
      "type": "function",
      "constant": true
    },
    {
      "inputs": [],
      "name": "availableFunds",
      "outputs": [
        {
          "internalType": "uint256",
          "name": "",
          "type": "uint256"
        }
      ],
      "stateMutability": "view",
      "type": "function",
      "constant": true
    },
    {
      "inputs": [],
      "name": "contributionEnd",
      "outputs": [
        {
          "internalType": "uint256",
          "name": "",
          "type": "uint256"
        }
      ],
      "stateMutability": "view",
      "type": "function",
      "constant": true
    },
    {
      "inputs": [
        {
          "internalType": "address",
          "name": "",
          "type": "address"
        }
      ],
      "name": "investors",
      "outputs": [
        {
          "internalType": "bool",
          "name": "",
          "type": "bool"
        }
      ],
      "stateMutability": "view",
      "type": "function",
      "constant": true
    },
    {
      "inputs": [],
      "name": "nextProposalId",
      "outputs": [
        {
          "internalType": "uint256",
          "name": "",
          "type": "uint256"
        }
      ],
      "stateMutability": "view",
      "type": "function",
      "constant": true
    },
    {
      "inputs": [
        {
          "internalType": "uint256",
          "name": "",
          "type": "uint256"
        }
      ],
      "name": "proposals",
      "outputs": [
        {
          "internalType": "uint256",
          "name": "id",
          "type": "uint256"
        },
        {
          "internalType": "string",
          "name": "name",
          "type": "string"
        },
        {
          "internalType": "uint256",
          "name": "amount",
          "type": "uint256"
        },
        {
          "internalType": "address payable",
          "name": "recipient",
          "type": "address"
        },
        {
          "internalType": "uint256",
          "name": "votes",
          "type": "uint256"
        },
        {
          "internalType": "uint256",
          "name": "end",
          "type": "uint256"
        },
        {
          "internalType": "bool",
          "name": "executed",
          "type": "bool"
        }
      ],
      "stateMutability": "view",
      "type": "function",
      "constant": true
    },
    {
      "inputs": [],
      "name": "quorum",
      "outputs": [
        {
          "internalType": "uint256",
          "name": "",
          "type": "uint256"
        }
      ],
      "stateMutability": "view",
      "type": "function",
      "constant": true
    },
    {
      "inputs": [
        {
          "internalType": "address",
          "name": "",
          "type": "address"
        }
      ],
      "name": "shares",
      "outputs": [
        {
          "internalType": "uint256",
          "name": "",
          "type": "uint256"
        }
      ],
      "stateMutability": "view",
      "type": "function",
      "constant": true
    },
    {
      "inputs": [],
      "name": "totalShares",
      "outputs": [
        {
          "internalType": "uint256",
          "name": "",
          "type": "uint256"
        }
      ],
      "stateMutability": "view",
      "type": "function",
      "constant": true
    },
    {
      "inputs": [],
      "name": "voteTime",
      "outputs": [
        {
          "internalType": "uint256",
          "name": "",
          "type": "uint256"
        }
      ],
      "stateMutability": "view",
      "type": "function",
      "constant": true
    },
    {
      "inputs": [
        {
          "internalType": "address",
          "name": "",
          "type": "address"
        },
        {
          "internalType": "uint256",
          "name": "",
          "type": "uint256"
        }
      ],
      "name": "votes",
      "outputs": [
        {
          "internalType": "bool",
          "name": "",
          "type": "bool"
        }
      ],
      "stateMutability": "view",
      "type": "function",
      "constant": true
    },
    {
      "stateMutability": "payable",
      "type": "receive",
      "payable": true
    },
    {
      "inputs": [],
      "name": "contribute",
      "outputs": [],
      "stateMutability": "payable",
      "type": "function",
      "payable": true
    },
    {
      "inputs": [
        {
          "internalType": "uint256",
          "name": "amount",
          "type": "uint256"
        }
      ],
      "name": "redeemShare",
      "outputs": [],
      "stateMutability": "nonpayable",
      "type": "function"
    },
    {
      "inputs": [
        {
          "internalType": "uint256",
          "name": "amount",
          "type": "uint256"
        },
        {
          "internalType": "address",
          "name": "to",
          "type": "address"
        }
      ],
      "name": "transferShare",
      "outputs": [],
      "stateMutability": "nonpayable",
      "type": "function"
    },
    {
      "inputs": [
        {
          "internalType": "string",
          "name": "name",
          "type": "string"
        },
        {
          "internalType": "uint256",
          "name": "amount",
          "type": "uint256"
        },
        {
          "internalType": "address payable",
          "name": "recipient",
          "type": "address"
        }
      ],
      "name": "createProposal",
      "outputs": [],
      "stateMutability": "nonpayable",
      "type": "function"
    },
    {
      "inputs": [
        {
          "internalType": "uint256",
          "name": "proposalId",
          "type": "uint256"
        }
      ],
      "name": "vote",
      "outputs": [],
      "stateMutability": "nonpayable",
      "type": "function"
    },
    {
      "inputs": [
        {
          "internalType": "uint256",
          "name": "proposalId",
          "type": "uint256"
        }
      ],
      "name": "executeProposal",
      "outputs": [],
      "stateMutability": "nonpayable",
      "type": "function"
    },
    {
      "inputs": [
        {
          "internalType": "uint256",
          "name": "amount",
          "type": "uint256"
        },
        {
          "internalType": "address payable",
          "name": "to",
          "type": "address"
        }
      ],
      "name": "withdrawEther",
      "outputs": [],
      "stateMutability": "nonpayable",
      "type": "function"
    }
  ],
  "bytecode": "0x60806040523480156200001157600080fd5b50604051620021bb380380620021bb83398181016040528101906200003791906200010d565b600081118015620000485750606481105b6200008a576040517f08c379a00000000000000000000000000000000000000000000000000000000081526004016200008190620001a5565b60405180910390fd5b8242620000989190620001d8565b600681905550816008819055508060098190555033600a60006101000a81548173ffffffffffffffffffffffffffffffffffffffff021916908373ffffffffffffffffffffffffffffffffffffffff16021790555050505062000288565b60008151905062000107816200026e565b92915050565b6000806000606084860312156200012357600080fd5b60006200013386828701620000f6565b93505060206200014686828701620000f6565b92505060406200015986828701620000f6565b9150509250925092565b600062000172602083620001c7565b91507f71756f72756d206d757374206265206265747765656e203020616e64203130306000830152602082019050919050565b60006020820190508181036000830152620001c08162000163565b9050919050565b600082825260208201905092915050565b6000620001e58262000235565b9150620001f28362000235565b9250827fffffffffffffffffffffffffffffffffffffffffffffffffffffffffffffffff038211156200022a57620002296200023f565b5b828201905092915050565b6000819050919050565b7f4e487b7100000000000000000000000000000000000000000000000000000000600052601160045260246000fd5b620002798162000235565b81146200028557600080fd5b50565b611f2380620002986000396000f3fe60806040526004361061010d5760003560e01c80636f7bc9be11610095578063ce56c45411610064578063ce56c45414610393578063ce7c2ac2146103bc578063d151b516146103f9578063d7bb99ba14610424578063f851a4401461042e5761012d565b80636f7bc9be146102c5578063868643df146103025780639f2524ee1461032b578063bcf93dd6146103685761012d565b80631703a018116100dc5780631703a018146101f05780632ab09d141461021b5780633a98ef391461024657806346fcff4c146102715780636ac1e01f1461029c5761012d565b80630121b93f14610132578063013cf08b1461015b578063039383e61461019e5780630d61b519146101c75761012d565b3661012d5734600560008282546101249190611baf565b92505081905550005b600080fd5b34801561013e57600080fd5b50610159600480360381019061015491906113f1565b610459565b005b34801561016757600080fd5b50610182600480360381019061017d91906113f1565b6106b3565b6040516101959796959493929190611abc565b60405180910390f35b3480156101aa57600080fd5b506101c560048036038101906101c0919061141a565b6107aa565b005b3480156101d357600080fd5b506101ee60048036038101906101e991906113f1565b610933565b005b3480156101fc57600080fd5b50610205610b11565b6040516102129190611aa1565b60405180910390f35b34801561022757600080fd5b50610230610b17565b60405161023d9190611aa1565b60405180910390f35b34801561025257600080fd5b5061025b610b1d565b6040516102689190611aa1565b60405180910390f35b34801561027d57600080fd5b50610286610b23565b6040516102939190611aa1565b60405180910390f35b3480156102a857600080fd5b506102c360048036038101906102be919061138a565b610b29565b005b3480156102d157600080fd5b506102ec60048036038101906102e79190611325565b610d56565b6040516102f99190611906565b60405180910390f35b34801561030e57600080fd5b50610329600480360381019061032491906113f1565b610d76565b005b34801561033757600080fd5b50610352600480360381019061034d919061134e565b610ef6565b60405161035f9190611906565b60405180910390f35b34801561037457600080fd5b5061037d610f25565b60405161038a9190611aa1565b60405180910390f35b34801561039f57600080fd5b506103ba60048036038101906103b59190611456565b610f2b565b005b3480156103c857600080fd5b506103e360048036038101906103de9190611325565b610fc9565b6040516103f09190611aa1565b60405180910390f35b34801561040557600080fd5b5061040e610fe1565b60405161041b9190611aa1565b60405180910390f35b61042c610fe7565b005b34801561043a57600080fd5b5061044361110c565b60405161045091906118eb565b60405180910390f35b600115156000803373ffffffffffffffffffffffffffffffffffffffff1673ffffffffffffffffffffffffffffffffffffffff16815260200190815260200160002060009054906101000a900460ff161515146104eb576040517f08c379a00000000000000000000000000000000000000000000000000000000081526004016104e2906119c1565b60405180910390fd5b600060036000838152602001908152602001600020905060001515600260003373ffffffffffffffffffffffffffffffffffffffff1673ffffffffffffffffffffffffffffffffffffffff168152602001908152602001600020600084815260200190815260200160002060009054906101000a900460ff161515146105a6576040517f08c379a000000000000000000000000000000000000000000000000000000000815260040161059d90611981565b60405180910390fd5b806005015442106105ec576040517f08c379a00000000000000000000000000000000000000000000000000000000081526004016105e3906119a1565b60405180910390fd5b6001600260003373ffffffffffffffffffffffffffffffffffffffff1673ffffffffffffffffffffffffffffffffffffffff168152602001908152602001600020600084815260200190815260200160002060006101000a81548160ff021916908315150217905550600160003373ffffffffffffffffffffffffffffffffffffffff1673ffffffffffffffffffffffffffffffffffffffff168152602001908152602001600020548160040160008282546106a89190611baf565b925050819055505050565b60036020528060005260406000206000915090508060000154908060010180546106dc90611d60565b80601f016020809104026020016040519081016040528092919081815260200182805461070890611d60565b80156107555780601f1061072a57610100808354040283529160200191610755565b820191906000526020600020905b81548152906001019060200180831161073857829003601f168201915b5050505050908060020154908060030160009054906101000a900473ffffffffffffffffffffffffffffffffffffffff16908060040154908060050154908060060160009054906101000a900460ff16905087565b81600160003373ffffffffffffffffffffffffffffffffffffffff1673ffffffffffffffffffffffffffffffffffffffff16815260200190815260200160002054101561082c576040517f08c379a000000000000000000000000000000000000000000000000000000000815260040161082390611921565b60405180910390fd5b81600160003373ffffffffffffffffffffffffffffffffffffffff1673ffffffffffffffffffffffffffffffffffffffff168152602001908152602001600020600082825461087b9190611c90565b9250508190555081600160008373ffffffffffffffffffffffffffffffffffffffff1673ffffffffffffffffffffffffffffffffffffffff16815260200190815260200160002060008282546108d19190611baf565b9250508190555060016000808373ffffffffffffffffffffffffffffffffffffffff1673ffffffffffffffffffffffffffffffffffffffff16815260200190815260200160002060006101000a81548160ff0219169083151502179055505050565b600a60009054906101000a900473ffffffffffffffffffffffffffffffffffffffff1673ffffffffffffffffffffffffffffffffffffffff163373ffffffffffffffffffffffffffffffffffffffff16146109c3576040517f08c379a00000000000000000000000000000000000000000000000000000000081526004016109ba90611961565b60405180910390fd5b60006003600083815260200190815260200160002090508060050154421015610a21576040517f08c379a0000000000000000000000000000000000000000000000000000000008152600401610a1890611a21565b60405180910390fd5b600015158160060160009054906101000a900460ff16151514610a79576040517f08c379a0000000000000000000000000000000000000000000000000000000008152600401610a7090611a01565b60405180910390fd5b60095460646004548360040154610a909190611c05565b610a9a9190611c36565b1015610adb576040517f08c379a0000000000000000000000000000000000000000000000000000000008152600401610ad2906119e1565b60405180910390fd5b610b0d81600201548260030160009054906101000a900473ffffffffffffffffffffffffffffffffffffffff16611132565b5050565b60095481565b60075481565b60045481565b60055481565b600115156000803373ffffffffffffffffffffffffffffffffffffffff1673ffffffffffffffffffffffffffffffffffffffff16815260200190815260200160002060009054906101000a900460ff16151514610bbb576040517f08c379a0000000000000000000000000000000000000000000000000000000008152600401610bb2906119c1565b60405180910390fd5b816005541015610c00576040517f08c379a0000000000000000000000000000000000000000000000000000000008152600401610bf790611941565b60405180910390fd5b6040518060e0016040528060075481526020018481526020018381526020018273ffffffffffffffffffffffffffffffffffffffff1681526020016000815260200160085442610c509190611baf565b815260200160001515815250600360006007548152602001908152602001600020600082015181600001556020820151816001019080519060200190610c979291906111db565b506040820151816002015560608201518160030160006101000a81548173ffffffffffffffffffffffffffffffffffffffff021916908373ffffffffffffffffffffffffffffffffffffffff1602179055506080820151816004015560a0820151816005015560c08201518160060160006101000a81548160ff0219169083151502179055509050508160056000828254610d329190611c90565b9250508190555060076000815480929190610d4c90611d92565b9190505550505050565b60006020528060005260406000206000915054906101000a900460ff1681565b80600160003373ffffffffffffffffffffffffffffffffffffffff1673ffffffffffffffffffffffffffffffffffffffff168152602001908152602001600020541015610df8576040517f08c379a0000000000000000000000000000000000000000000000000000000008152600401610def90611921565b60405180910390fd5b806005541015610e3d576040517f08c379a0000000000000000000000000000000000000000000000000000000008152600401610e3490611a81565b60405180910390fd5b80600160003373ffffffffffffffffffffffffffffffffffffffff1673ffffffffffffffffffffffffffffffffffffffff1681526020019081526020016000206000828254610e8c9190611c90565b925050819055508060056000828254610ea59190611c90565b925050819055503373ffffffffffffffffffffffffffffffffffffffff166108fc829081150290604051600060405180830381858888f19350505050158015610ef2573d6000803e3d6000fd5b5050565b60026020528160005260406000206020528060005260406000206000915091509054906101000a900460ff1681565b60085481565b600a60009054906101000a900473ffffffffffffffffffffffffffffffffffffffff1673ffffffffffffffffffffffffffffffffffffffff163373ffffffffffffffffffffffffffffffffffffffff1614610fbb576040517f08c379a0000000000000000000000000000000000000000000000000000000008152600401610fb290611961565b60405180910390fd5b610fc58282611132565b5050565b60016020528060005260406000206000915090505481565b60065481565b600654421061102b576040517f08c379a000000000000000000000000000000000000000000000000000000000815260040161102290611a41565b60405180910390fd5b60016000803373ffffffffffffffffffffffffffffffffffffffff1673ffffffffffffffffffffffffffffffffffffffff16815260200190815260200160002060006101000a81548160ff02191690831515021790555034600160003373ffffffffffffffffffffffffffffffffffffffff1673ffffffffffffffffffffffffffffffffffffffff16815260200190815260200160002060008282546110d19190611baf565b9250508190555034600460008282546110ea9190611baf565b9250508190555034600560008282546111039190611baf565b92505081905550565b600a60009054906101000a900473ffffffffffffffffffffffffffffffffffffffff1681565b600554821115611177576040517f08c379a000000000000000000000000000000000000000000000000000000000815260040161116e90611a61565b60405180910390fd5b81600560008282546111899190611c90565b925050819055508073ffffffffffffffffffffffffffffffffffffffff166108fc839081150290604051600060405180830381858888f193505050501580156111d6573d6000803e3d6000fd5b505050565b8280546111e790611d60565b90600052602060002090601f0160209004810192826112095760008555611250565b82601f1061122257805160ff1916838001178555611250565b82800160010185558215611250579182015b8281111561124f578251825591602001919060010190611234565b5b50905061125d9190611261565b5090565b5b8082111561127a576000816000905550600101611262565b5090565b600061129161128c84611b63565b611b32565b9050828152602081018484840111156112a957600080fd5b6112b4848285611d1e565b509392505050565b6000813590506112cb81611ea8565b92915050565b6000813590506112e081611ebf565b92915050565b600082601f8301126112f757600080fd5b813561130784826020860161127e565b91505092915050565b60008135905061131f81611ed6565b92915050565b60006020828403121561133757600080fd5b6000611345848285016112bc565b91505092915050565b6000806040838503121561136157600080fd5b600061136f858286016112bc565b925050602061138085828601611310565b9150509250929050565b60008060006060848603121561139f57600080fd5b600084013567ffffffffffffffff8111156113b957600080fd5b6113c5868287016112e6565b93505060206113d686828701611310565b92505060406113e7868287016112d1565b9150509250925092565b60006020828403121561140357600080fd5b600061141184828501611310565b91505092915050565b6000806040838503121561142d57600080fd5b600061143b85828601611310565b925050602061144c858286016112bc565b9150509250929050565b6000806040838503121561146957600080fd5b600061147785828601611310565b9250506020611488858286016112d1565b9150509250929050565b61149b81611cd6565b82525050565b6114aa81611cc4565b82525050565b6114b981611ce8565b82525050565b60006114ca82611b93565b6114d48185611b9e565b93506114e4818560208601611d2d565b6114ed81611e97565b840191505092915050565b6000611505601183611b9e565b91507f6e6f7420656e6f756768207368617265730000000000000000000000000000006000830152602082019050919050565b6000611545600e83611b9e565b91507f616d6f756e7420746f6f206269670000000000000000000000000000000000006000830152602082019050919050565b6000611585600a83611b9e565b91507f6f6e6c792061646d696e000000000000000000000000000000000000000000006000830152602082019050919050565b60006115c5602a83611b9e565b91507f696e766573746f722063616e206f6e6c7920766f7465206f6e636520666f722060008301527f612070726f706f73616c000000000000000000000000000000000000000000006020830152604082019050919050565b600061162b602583611b9e565b91507f63616e206f6e6c7920766f746520756e74696c2070726f706f73616c20656e6460008301527f20646174650000000000000000000000000000000000000000000000000000006020830152604082019050919050565b6000611691600e83611b9e565b91507f6f6e6c7920696e766573746f72730000000000000000000000000000000000006000830152602082019050919050565b60006116d1603183611b9e565b91507f63616e6e6f7420657865637574652070726f706f73616c207769746820766f7460008301527f657320232062656c6f772071756f72756d0000000000000000000000000000006020830152604082019050919050565b6000611737602883611b9e565b91507f63616e6e6f7420657865637574652070726f706f73616c20616c72656164792060008301527f65786563757465640000000000000000000000000000000000000000000000006020830152604082019050919050565b600061179d602783611b9e565b91507f63616e6e6f7420657865637574652070726f706f73616c206265666f7265206560008301527f6e642064617465000000000000000000000000000000000000000000000000006020830152604082019050919050565b6000611803602783611b9e565b91507f63616e6e6f7420636f6e7472696275746520616674657220636f6e747269627560008301527f74696f6e456e64000000000000000000000000000000000000000000000000006020830152604082019050919050565b6000611869601983611b9e565b91507f6e6f7420656e6f75676820617661696c61626c6546756e6473000000000000006000830152602082019050919050565b60006118a9601a83611b9e565b91507f6e6f7420656e6f75676820617661696c61626c652066756e64730000000000006000830152602082019050919050565b6118e581611d14565b82525050565b600060208201905061190060008301846114a1565b92915050565b600060208201905061191b60008301846114b0565b92915050565b6000602082019050818103600083015261193a816114f8565b9050919050565b6000602082019050818103600083015261195a81611538565b9050919050565b6000602082019050818103600083015261197a81611578565b9050919050565b6000602082019050818103600083015261199a816115b8565b9050919050565b600060208201905081810360008301526119ba8161161e565b9050919050565b600060208201905081810360008301526119da81611684565b9050919050565b600060208201905081810360008301526119fa816116c4565b9050919050565b60006020820190508181036000830152611a1a8161172a565b9050919050565b60006020820190508181036000830152611a3a81611790565b9050919050565b60006020820190508181036000830152611a5a816117f6565b9050919050565b60006020820190508181036000830152611a7a8161185c565b9050919050565b60006020820190508181036000830152611a9a8161189c565b9050919050565b6000602082019050611ab660008301846118dc565b92915050565b600060e082019050611ad1600083018a6118dc565b8181036020830152611ae381896114bf565b9050611af260408301886118dc565b611aff6060830187611492565b611b0c60808301866118dc565b611b1960a08301856118dc565b611b2660c08301846114b0565b98975050505050505050565b6000604051905081810181811067ffffffffffffffff82111715611b5957611b58611e68565b5b8060405250919050565b600067ffffffffffffffff821115611b7e57611b7d611e68565b5b601f19601f8301169050602081019050919050565b600081519050919050565b600082825260208201905092915050565b6000611bba82611d14565b9150611bc583611d14565b9250827fffffffffffffffffffffffffffffffffffffffffffffffffffffffffffffffff03821115611bfa57611bf9611ddb565b5b828201905092915050565b6000611c1082611d14565b9150611c1b83611d14565b925082611c2b57611c2a611e0a565b5b828204905092915050565b6000611c4182611d14565b9150611c4c83611d14565b9250817fffffffffffffffffffffffffffffffffffffffffffffffffffffffffffffffff0483118215151615611c8557611c84611ddb565b5b828202905092915050565b6000611c9b82611d14565b9150611ca683611d14565b925082821015611cb957611cb8611ddb565b5b828203905092915050565b6000611ccf82611cf4565b9050919050565b6000611ce182611cf4565b9050919050565b60008115159050919050565b600073ffffffffffffffffffffffffffffffffffffffff82169050919050565b6000819050919050565b82818337600083830152505050565b60005b83811015611d4b578082015181840152602081019050611d30565b83811115611d5a576000848401525b50505050565b60006002820490506001821680611d7857607f821691505b60208210811415611d8c57611d8b611e39565b5b50919050565b6000611d9d82611d14565b91507fffffffffffffffffffffffffffffffffffffffffffffffffffffffffffffffff821415611dd057611dcf611ddb565b5b600182019050919050565b7f4e487b7100000000000000000000000000000000000000000000000000000000600052601160045260246000fd5b7f4e487b7100000000000000000000000000000000000000000000000000000000600052601260045260246000fd5b7f4e487b7100000000000000000000000000000000000000000000000000000000600052602260045260246000fd5b7f4e487b7100000000000000000000000000000000000000000000000000000000600052604160045260246000fd5b6000601f19601f8301169050919050565b611eb181611cc4565b8114611ebc57600080fd5b50565b611ec881611cd6565b8114611ed357600080fd5b50565b611edf81611d14565b8114611eea57600080fd5b5056fea2646970667358221220af00007723a97cdf688e13091665c53dcf76ce9301aef02b693daa3d4c33c18f64736f6c63430008000033",
  "immutableReferences": {},
  "source": "pragma solidity ^0.8.0;\r\n\r\n/**\r\n * DAO contract:\r\n * 1. Collects investors money (ether) & allocate shares\r\n * 2. Keep track of investor contributions with shares\r\n * 3. Allow investors to transfer shares\r\n * 4. allow investment proposals to be created and voted\r\n * 5. execute successful investment proposals (i.e send money)\r\n */\r\n\r\ncontract DAO {\r\n  struct Proposal {\r\n    uint id;\r\n    string name;\r\n    uint amount;\r\n    address payable recipient;\r\n    uint votes;\r\n    uint end;\r\n    bool executed;\r\n  }\r\n\r\n  mapping(address => bool) public investors;\r\n  mapping(address => uint) public shares;\r\n  mapping(address => mapping(uint => bool)) public votes;\r\n  mapping(uint => Proposal) public proposals;\r\n  uint public totalShares;\r\n  uint public availableFunds;\r\n  uint public contributionEnd;\r\n  uint public nextProposalId;\r\n  uint public voteTime;\r\n  uint public quorum;\r\n  address public admin;\r\n\r\n  constructor(\r\n    uint contributionTime, \r\n    uint _voteTime,\r\n    uint _quorum) {\r\n    require(_quorum > 0 && _quorum < 100, 'quorum must be between 0 and 100');\r\n    contributionEnd = block.timestamp + contributionTime;\r\n    voteTime = _voteTime;\r\n    quorum = _quorum;\r\n    admin = msg.sender;\r\n  }\r\n\r\n  function contribute() payable external {\r\n    require(block.timestamp < contributionEnd, 'cannot contribute after contributionEnd');\r\n    investors[msg.sender] = true;\r\n    shares[msg.sender] += msg.value;\r\n    totalShares += msg.value;\r\n    availableFunds += msg.value;\r\n  }\r\n\r\n  function redeemShare(uint amount) external {\r\n    require(shares[msg.sender] >= amount, 'not enough shares');\r\n    require(availableFunds >= amount, 'not enough available funds');\r\n    shares[msg.sender] -= amount;\r\n    availableFunds -= amount;\r\n    payable(msg.sender).transfer(amount);\r\n  }\r\n    \r\n  function transferShare(uint amount, address to) external {\r\n    require(shares[msg.sender] >= amount, 'not enough shares');\r\n    shares[msg.sender] -= amount;\r\n    shares[to] += amount;\r\n    investors[to] = true;\r\n  }\r\n\r\n  function createProposal(\r\n    string memory name,\r\n    uint amount,\r\n    address payable recipient) \r\n    public \r\n    onlyInvestors() {\r\n    require(availableFunds >= amount, 'amount too big');\r\n    proposals[nextProposalId] = Proposal(\r\n      nextProposalId,\r\n      name,\r\n      amount,\r\n      recipient,\r\n      0,\r\n      block.timestamp + voteTime,\r\n      false\r\n    );\r\n    availableFunds -= amount;\r\n    nextProposalId++;\r\n  }\r\n\r\n  function vote(uint proposalId) external onlyInvestors() {\r\n    Proposal storage proposal = proposals[proposalId];\r\n    require(votes[msg.sender][proposalId] == false, 'investor can only vote once for a proposal');\r\n    require(block.timestamp < proposal.end, 'can only vote until proposal end date');\r\n    votes[msg.sender][proposalId] = true;\r\n    proposal.votes += shares[msg.sender];\r\n  }\r\n\r\n  function executeProposal(uint proposalId) external onlyAdmin() {\r\n    Proposal storage proposal = proposals[proposalId];\r\n    require(block.timestamp >= proposal.end, 'cannot execute proposal before end date');\r\n    require(proposal.executed == false, 'cannot execute proposal already executed');\r\n    require((proposal.votes / totalShares) * 100 >= quorum, 'cannot execute proposal with votes # below quorum');\r\n    _transferEther(proposal.amount, proposal.recipient);\r\n  }\r\n\r\n  function withdrawEther(uint amount, address payable to) external onlyAdmin() {\r\n    _transferEther(amount, to);\r\n  }\r\n  \r\n  function _transferEther(uint amount, address payable to) internal {\r\n    require(amount <= availableFunds, 'not enough availableFunds');\r\n    availableFunds -= amount;\r\n    to.transfer(amount);\r\n  }\r\n\r\n  //For ether returns of proposal investments\r\n  receive() external payable {\r\n    availableFunds += msg.value;\r\n  }\r\n\r\n  modifier onlyInvestors() {\r\n    require(investors[msg.sender] == true, 'only investors');\r\n    _;\r\n  }\r\n\r\n  modifier onlyAdmin() {\r\n    require(msg.sender == admin, 'only admin');\r\n    _;\r\n  }\r\n}",
  "sourcePath": "E:/DAO/contracts/DAO.sol",
  "compiler": {
    "name": "solc",
    "version": "0.8.0+commit.c7dfd78e.Emscripten.clang"
  },
  "schemaVersion": "3.3.4",
  "updatedAt": "2021-07-30T12:55:28.041Z",
  "networkType": "ethereum",
  "devdoc": {
    "kind": "dev",
    "methods": {},
    "version": 1
  },
  "userdoc": {
    "kind": "user",
    "methods": {},
    "notice": "DAO contract: 1. Collects investors money (ether) & allocate shares 2. Keep track of investor contributions with shares 3. Allow investors to transfer shares 4. allow investment proposals to be created and voted 5. execute successful investment proposals (i.e send money)",
    "version": 1
  }
}